{
  "_format": "hh-sol-artifact-1",
  "contractName": "EnsName",
  "sourceName": "src/backend/contracts/EnsName.sol",
  "abi": [
    {
      "inputs": [],
      "stateMutability": "nonpayable",
      "type": "constructor"
    },
    {
      "inputs": [
        {
          "internalType": "uint256",
          "name": "_itemId",
          "type": "uint256"
        }
      ],
      "name": "buyENS",
      "outputs": [],
      "stateMutability": "payable",
      "type": "function"
    },
    {
      "inputs": [],
      "name": "ensContract",
      "outputs": [
        {
          "internalType": "contract IERC721",
          "name": "",
          "type": "address"
        }
      ],
      "stateMutability": "view",
      "type": "function"
    },
    {
      "inputs": [],
      "name": "itemCount",
      "outputs": [
        {
          "internalType": "uint256",
          "name": "",
          "type": "uint256"
        }
      ],
      "stateMutability": "view",
      "type": "function"
    },
    {
      "inputs": [
        {
          "internalType": "uint256",
          "name": "",
          "type": "uint256"
        }
      ],
      "name": "items",
      "outputs": [
        {
          "internalType": "uint256",
          "name": "itemId",
          "type": "uint256"
        },
        {
          "internalType": "string",
          "name": "name",
          "type": "string"
        },
        {
          "internalType": "uint256",
          "name": "tokenId",
          "type": "uint256"
        },
        {
          "internalType": "uint256",
          "name": "price",
          "type": "uint256"
        },
        {
          "internalType": "bool",
          "name": "listed",
          "type": "bool"
        },
        {
          "internalType": "address payable",
          "name": "seller",
          "type": "address"
        }
      ],
      "stateMutability": "view",
      "type": "function"
    },
    {
      "inputs": [
        {
          "internalType": "string",
          "name": "_name",
          "type": "string"
        },
        {
          "internalType": "uint256",
          "name": "_tokenId",
          "type": "uint256"
        },
        {
          "internalType": "uint256",
          "name": "_price",
          "type": "uint256"
        }
      ],
      "name": "listENS",
      "outputs": [],
      "stateMutability": "nonpayable",
      "type": "function"
    },
    {
      "stateMutability": "payable",
      "type": "receive"
    }
  ],
  "bytecode": "0x60a060405234801561001057600080fd5b5073161ac1bad1b9cfe7a940aace6bc998d41cbb536a73ffffffffffffffffffffffffffffffffffffffff1660808173ffffffffffffffffffffffffffffffffffffffff1681525050608051610ef461007460003960006102990152610ef46000f3fe60806040526004361061004e5760003560e01c80634783de501461005a5780636881e763146100835780636bfb0d01146100ae578063bfb231d2146100d9578063f3eee3851461011b57610055565b3661005557005b600080fd5b34801561006657600080fd5b50610081600480360381019061007c91906108d1565b610137565b005b34801561008f57600080fd5b50610098610297565b6040516100a591906109bf565b60405180910390f35b3480156100ba57600080fd5b506100c36102bb565b6040516100d091906109e9565b60405180910390f35b3480156100e557600080fd5b5061010060048036038101906100fb9190610a04565b6102c1565b60405161011296959493929190610af5565b60405180910390f35b61013560048036038101906101309190610a04565b6103b2565b005b6000811161017a576040517f08c379a000000000000000000000000000000000000000000000000000000000815260040161017190610ba9565b60405180910390fd5b60008081548092919061018c90610bf8565b91905055506040518060c0016040528060005481526020018481526020018381526020018281526020016001151581526020013373ffffffffffffffffffffffffffffffffffffffff16815250600160008054815260200190815260200160002060008201518160000155602082015181600101908051906020019061021392919061069e565b50604082015181600201556060820151816003015560808201518160040160006101000a81548160ff02191690831515021790555060a08201518160040160016101000a81548173ffffffffffffffffffffffffffffffffffffffff021916908373ffffffffffffffffffffffffffffffffffffffff160217905550905050505050565b7f000000000000000000000000000000000000000000000000000000000000000081565b60005481565b60016020528060005260406000206000915090508060000154908060010180546102ea90610c70565b80601f016020809104026020016040519081016040528092919081815260200182805461031690610c70565b80156103635780601f1061033857610100808354040283529160200191610363565b820191906000526020600020905b81548152906001019060200180831161034657829003601f168201915b5050505050908060020154908060030154908060040160009054906101000a900460ff16908060040160019054906101000a900473ffffffffffffffffffffffffffffffffffffffff16905086565b6000600160008381526020019081526020016000206040518060c0016040529081600082015481526020016001820180546103ec90610c70565b80601f016020809104026020016040519081016040528092919081815260200182805461041890610c70565b80156104655780601f1061043a57610100808354040283529160200191610465565b820191906000526020600020905b81548152906001019060200180831161044857829003601f168201915b5050505050815260200160028201548152602001600382015481526020016004820160009054906101000a900460ff161515151581526020016004820160019054906101000a900473ffffffffffffffffffffffffffffffffffffffff1673ffffffffffffffffffffffffffffffffffffffff1673ffffffffffffffffffffffffffffffffffffffff16815250509050806060015134101561053c576040517f08c379a000000000000000000000000000000000000000000000000000000000815260040161053390610cee565b60405180910390fd5b60008211801561054e57506000548211155b61058d576040517f08c379a000000000000000000000000000000000000000000000000000000000815260040161058490610d5a565b60405180910390fd5b6001151581608001511515146105d8576040517f08c379a00000000000000000000000000000000000000000000000000000000081526004016105cf90610dec565b60405180910390fd5b600081608001901515908115158152505060008160a0015173ffffffffffffffffffffffffffffffffffffffff163460405161061390610e3d565b60006040518083038185875af1925050503d8060008114610650576040519150601f19603f3d011682016040523d82523d6000602084013e610655565b606091505b5050905080610699576040517f08c379a000000000000000000000000000000000000000000000000000000000815260040161069090610e9e565b60405180910390fd5b505050565b8280546106aa90610c70565b90600052602060002090601f0160209004810192826106cc5760008555610713565b82601f106106e557805160ff1916838001178555610713565b82800160010185558215610713579182015b828111156107125782518255916020019190600101906106f7565b5b5090506107209190610724565b5090565b5b8082111561073d576000816000905550600101610725565b5090565b6000604051905090565b600080fd5b600080fd5b600080fd5b600080fd5b6000601f19601f8301169050919050565b7f4e487b7100000000000000000000000000000000000000000000000000000000600052604160045260246000fd5b6107a88261075f565b810181811067ffffffffffffffff821117156107c7576107c6610770565b5b80604052505050565b60006107da610741565b90506107e6828261079f565b919050565b600067ffffffffffffffff82111561080657610805610770565b5b61080f8261075f565b9050602081019050919050565b82818337600083830152505050565b600061083e610839846107eb565b6107d0565b90508281526020810184848401111561085a5761085961075a565b5b61086584828561081c565b509392505050565b600082601f83011261088257610881610755565b5b813561089284826020860161082b565b91505092915050565b6000819050919050565b6108ae8161089b565b81146108b957600080fd5b50565b6000813590506108cb816108a5565b92915050565b6000806000606084860312156108ea576108e961074b565b5b600084013567ffffffffffffffff81111561090857610907610750565b5b6109148682870161086d565b9350506020610925868287016108bc565b9250506040610936868287016108bc565b9150509250925092565b600073ffffffffffffffffffffffffffffffffffffffff82169050919050565b6000819050919050565b600061098561098061097b84610940565b610960565b610940565b9050919050565b60006109978261096a565b9050919050565b60006109a98261098c565b9050919050565b6109b98161099e565b82525050565b60006020820190506109d460008301846109b0565b92915050565b6109e38161089b565b82525050565b60006020820190506109fe60008301846109da565b92915050565b600060208284031215610a1a57610a1961074b565b5b6000610a28848285016108bc565b91505092915050565b600081519050919050565b600082825260208201905092915050565b60005b83811015610a6b578082015181840152602081019050610a50565b83811115610a7a576000848401525b50505050565b6000610a8b82610a31565b610a958185610a3c565b9350610aa5818560208601610a4d565b610aae8161075f565b840191505092915050565b60008115159050919050565b610ace81610ab9565b82525050565b6000610adf82610940565b9050919050565b610aef81610ad4565b82525050565b600060c082019050610b0a60008301896109da565b8181036020830152610b1c8188610a80565b9050610b2b60408301876109da565b610b3860608301866109da565b610b456080830185610ac5565b610b5260a0830184610ae6565b979650505050505050565b7f707269636573686f756c642062652067726561746572207468616e2030000000600082015250565b6000610b93601d83610a3c565b9150610b9e82610b5d565b602082019050919050565b60006020820190508181036000830152610bc281610b86565b9050919050565b7f4e487b7100000000000000000000000000000000000000000000000000000000600052601160045260246000fd5b6000610c038261089b565b91507fffffffffffffffffffffffffffffffffffffffffffffffffffffffffffffffff821415610c3657610c35610bc9565b5b600182019050919050565b7f4e487b7100000000000000000000000000000000000000000000000000000000600052602260045260246000fd5b60006002820490506001821680610c8857607f821691505b60208210811415610c9c57610c9b610c41565b5b50919050565b7f50726963652073656e74206973206e6f7420636f727265637400000000000000600082015250565b6000610cd8601983610a3c565b9150610ce382610ca2565b602082019050919050565b60006020820190508181036000830152610d0781610ccb565b9050919050565b7f57726f6e67206974656d49440000000000000000000000000000000000000000600082015250565b6000610d44600c83610a3c565b9150610d4f82610d0e565b602082019050919050565b60006020820190508181036000830152610d7381610d37565b9050919050565b7f54686973206974656d206973206e6f74206265656e206c697374656420666f7260008201527f2073616c65000000000000000000000000000000000000000000000000000000602082015250565b6000610dd6602583610a3c565b9150610de182610d7a565b604082019050919050565b60006020820190508181036000830152610e0581610dc9565b9050919050565b600081905092915050565b50565b6000610e27600083610e0c565b9150610e3282610e17565b600082019050919050565b6000610e4882610e1a565b9150819050919050565b7f4661696c656420746f2073656e64204574686572000000000000000000000000600082015250565b6000610e88601483610a3c565b9150610e9382610e52565b602082019050919050565b60006020820190508181036000830152610eb781610e7b565b905091905056fea264697066735822122090f5444e54fd026473a1fe0d85ad584e9f98e0c9ac11def1060a8639e07ed21b64736f6c63430008090033",
  "linkReferences": {},
  "deployedLinkReferences": {}
}